{
  "contractName": "Ballot",
  "abi": [
    {
      "constant": true,
      "inputs": [
        {
          "name": "",
          "type": "uint256"
        }
      ],
      "name": "proposals",
      "outputs": [
        {
          "name": "name",
          "type": "bytes32"
        },
        {
          "name": "voteCount",
          "type": "uint256"
        }
      ],
      "payable": false,
      "stateMutability": "view",
      "type": "function",
      "signature": "0x013cf08b"
    },
    {
      "constant": true,
      "inputs": [],
      "name": "chairperson",
      "outputs": [
        {
          "name": "",
          "type": "address"
        }
      ],
      "payable": false,
      "stateMutability": "view",
      "type": "function",
      "signature": "0x2e4176cf"
    },
    {
      "constant": true,
      "inputs": [
        {
          "name": "",
          "type": "address"
        }
      ],
      "name": "voters",
      "outputs": [
        {
          "name": "weight",
          "type": "uint256"
        },
        {
          "name": "voted",
          "type": "bool"
        },
        {
          "name": "delegate",
          "type": "address"
        },
        {
          "name": "vote",
          "type": "uint256"
        }
      ],
      "payable": false,
      "stateMutability": "view",
      "type": "function",
      "signature": "0xa3ec138d"
    },
    {
      "inputs": [
        {
          "name": "proposalNames",
          "type": "bytes32[]"
        }
      ],
      "payable": false,
      "stateMutability": "nonpayable",
      "type": "constructor",
      "signature": "constructor"
    },
    {
      "constant": true,
      "inputs": [],
      "name": "getChairperson",
      "outputs": [
        {
          "name": "",
          "type": "address"
        }
      ],
      "payable": false,
      "stateMutability": "view",
      "type": "function",
      "signature": "0x7d80c38e"
    },
    {
      "constant": false,
      "inputs": [
        {
          "name": "voter",
          "type": "address"
        }
      ],
      "name": "giveRightToVote",
      "outputs": [],
      "payable": false,
      "stateMutability": "nonpayable",
      "type": "function",
      "signature": "0x9e7b8d61"
    },
    {
      "constant": false,
      "inputs": [
        {
          "name": "to",
          "type": "address"
        }
      ],
      "name": "delegate",
      "outputs": [],
      "payable": false,
      "stateMutability": "nonpayable",
      "type": "function",
      "signature": "0x5c19a95c"
    },
    {
      "constant": false,
      "inputs": [
        {
          "name": "proposal",
          "type": "uint256"
        }
      ],
      "name": "vote",
      "outputs": [],
      "payable": false,
      "stateMutability": "nonpayable",
      "type": "function",
      "signature": "0x0121b93f"
    },
    {
      "constant": true,
      "inputs": [],
      "name": "winningProposal",
      "outputs": [
        {
          "name": "winningProposal_",
          "type": "uint256"
        }
      ],
      "payable": false,
      "stateMutability": "view",
      "type": "function",
      "signature": "0x609ff1bd"
    },
    {
      "constant": true,
      "inputs": [],
      "name": "winnerName",
      "outputs": [
        {
          "name": "winnerName_",
          "type": "bytes32"
        }
      ],
      "payable": false,
      "stateMutability": "view",
      "type": "function",
      "signature": "0xe2ba53f0"
    }
  ],
  "bytecode": "0x608060405234801561001057600080fd5b50604051610f12380380610f128339810180604052602081101561003357600080fd5b81019080805164010000000081111561004b57600080fd5b8281019050602081018481111561006157600080fd5b815185602082028301116401000000008211171561007e57600080fd5b5050929190505050336000806101000a81548173ffffffffffffffffffffffffffffffffffffffff021916908373ffffffffffffffffffffffffffffffffffffffff16021790555060018060008060009054906101000a900473ffffffffffffffffffffffffffffffffffffffff1673ffffffffffffffffffffffffffffffffffffffff1673ffffffffffffffffffffffffffffffffffffffff1681526020019081526020016000206000018190555060008090505b81518110156101bb5760026040805190810160405280848481518110151561015857fe5b90602001906020020151815260200160008152509080600181540180825580915050906001820390600052602060002090600202016000909192909190915060008201518160000155602082015181600101555050508080600101915050610134565b5050610d46806101cc6000396000f3fe608060405260043610610099576000357c0100000000000000000000000000000000000000000000000000000000900463ffffffff1680630121b93f1461009e578063013cf08b146100d95780632e4176cf1461012f5780635c19a95c14610186578063609ff1bd146101d75780637d80c38e146102025780639e7b8d6114610259578063a3ec138d146102aa578063e2ba53f014610354575b600080fd5b3480156100aa57600080fd5b506100d7600480360360208110156100c157600080fd5b810190808035906020019092919050505061037f565b005b3480156100e557600080fd5b50610112600480360360208110156100fc57600080fd5b8101908080359060200190929190505050610522565b604051808381526020018281526020019250505060405180910390f35b34801561013b57600080fd5b50610144610555565b604051808273ffffffffffffffffffffffffffffffffffffffff1673ffffffffffffffffffffffffffffffffffffffff16815260200191505060405180910390f35b34801561019257600080fd5b506101d5600480360360208110156101a957600080fd5b81019080803573ffffffffffffffffffffffffffffffffffffffff16906020019092919050505061057a565b005b3480156101e357600080fd5b506101ec6109a0565b6040518082815260200191505060405180910390f35b34801561020e57600080fd5b50610217610a1b565b604051808273ffffffffffffffffffffffffffffffffffffffff1673ffffffffffffffffffffffffffffffffffffffff16815260200191505060405180910390f35b34801561026557600080fd5b506102a86004803603602081101561027c57600080fd5b81019080803573ffffffffffffffffffffffffffffffffffffffff169060200190929190505050610a44565b005b3480156102b657600080fd5b506102f9600480360360208110156102cd57600080fd5b81019080803573ffffffffffffffffffffffffffffffffffffffff169060200190929190505050610c8e565b60405180858152602001841515151581526020018373ffffffffffffffffffffffffffffffffffffffff1673ffffffffffffffffffffffffffffffffffffffff16815260200182815260200194505050505060405180910390f35b34801561036057600080fd5b50610369610ceb565b6040518082815260200191505060405180910390f35b6000600160003373ffffffffffffffffffffffffffffffffffffffff1673ffffffffffffffffffffffffffffffffffffffff1681526020019081526020016000209050600081600001541415151561043f576040517f08c379a00000000000000000000000000000000000000000000000000000000081526004018080602001828103825260148152602001807f486173206e6f20726967687420746f20766f746500000000000000000000000081525060200191505060405180910390fd5b8060010160009054906101000a900460ff161515156104c6576040517f08c379a000000000000000000000000000000000000000000000000000000000815260040180806020018281038252600e8152602001807f416c726561647920766f7465642e00000000000000000000000000000000000081525060200191505060405180910390fd5b60018160010160006101000a81548160ff021916908315150217905550818160020181905550806000015460028381548110151561050057fe5b9060005260206000209060020201600101600082825401925050819055505050565b60028181548110151561053157fe5b90600052602060002090600202016000915090508060000154908060010154905082565b6000809054906101000a900473ffffffffffffffffffffffffffffffffffffffff1681565b6000600160003373ffffffffffffffffffffffffffffffffffffffff1673ffffffffffffffffffffffffffffffffffffffff16815260200190815260200160002090508060010160009054906101000a900460ff16151515610644576040517f08c379a00000000000000000000000000000000000000000000000000000000081526004018080602001828103825260128152602001807f596f7520616c726561647920766f7465642e000000000000000000000000000081525060200191505060405180910390fd5b3373ffffffffffffffffffffffffffffffffffffffff168273ffffffffffffffffffffffffffffffffffffffff16141515156106e8576040517f08c379a000000000000000000000000000000000000000000000000000000000815260040180806020018281038252601e8152602001807f53656c662d64656c65676174696f6e20697320646973616c6c6f7765642e000081525060200191505060405180910390fd5b5b600073ffffffffffffffffffffffffffffffffffffffff16600160008473ffffffffffffffffffffffffffffffffffffffff1673ffffffffffffffffffffffffffffffffffffffff16815260200190815260200160002060010160019054906101000a900473ffffffffffffffffffffffffffffffffffffffff1673ffffffffffffffffffffffffffffffffffffffff1614151561088f57600160008373ffffffffffffffffffffffffffffffffffffffff1673ffffffffffffffffffffffffffffffffffffffff16815260200190815260200160002060010160019054906101000a900473ffffffffffffffffffffffffffffffffffffffff1691503373ffffffffffffffffffffffffffffffffffffffff168273ffffffffffffffffffffffffffffffffffffffff161415151561088a576040517f08c379a00000000000000000000000000000000000000000000000000000000081526004018080602001828103825260198152602001807f466f756e64206c6f6f7020696e2064656c65676174696f6e2e0000000000000081525060200191505060405180910390fd5b6106e9565b60018160010160006101000a81548160ff021916908315150217905550818160010160016101000a81548173ffffffffffffffffffffffffffffffffffffffff021916908373ffffffffffffffffffffffffffffffffffffffff1602179055506000600160008473ffffffffffffffffffffffffffffffffffffffff1673ffffffffffffffffffffffffffffffffffffffff16815260200190815260200160002090508060010160009054906101000a900460ff16156109845781600001546002826002015481548110151561096157fe5b90600052602060002090600202016001016000828254019250508190555061099b565b816000015481600001600082825401925050819055505b505050565b6000806000905060008090505b600280549050811015610a1657816002828154811015156109ca57fe5b9060005260206000209060020201600101541115610a09576002818154811015156109f157fe5b90600052602060002090600202016001015491508092505b80806001019150506109ad565b505090565b60008060009054906101000a900473ffffffffffffffffffffffffffffffffffffffff16905090565b6000809054906101000a900473ffffffffffffffffffffffffffffffffffffffff1673ffffffffffffffffffffffffffffffffffffffff163373ffffffffffffffffffffffffffffffffffffffff16141515610b2e576040517f08c379a00000000000000000000000000000000000000000000000000000000081526004018080602001828103825260288152602001807f4f6e6c79206368616972706572736f6e2063616e20676976652072696768742081526020017f746f20766f74652e00000000000000000000000000000000000000000000000081525060400191505060405180910390fd5b600160008273ffffffffffffffffffffffffffffffffffffffff1673ffffffffffffffffffffffffffffffffffffffff16815260200190815260200160002060010160009054906101000a900460ff16151515610bf3576040517f08c379a00000000000000000000000000000000000000000000000000000000081526004018080602001828103825260188152602001807f54686520766f74657220616c726561647920766f7465642e000000000000000081525060200191505060405180910390fd5b6000600160008373ffffffffffffffffffffffffffffffffffffffff1673ffffffffffffffffffffffffffffffffffffffff16815260200190815260200160002060000154141515610c4457600080fd5b60018060008373ffffffffffffffffffffffffffffffffffffffff1673ffffffffffffffffffffffffffffffffffffffff1681526020019081526020016000206000018190555050565b60016020528060005260406000206000915090508060000154908060010160009054906101000a900460ff16908060010160019054906101000a900473ffffffffffffffffffffffffffffffffffffffff16908060020154905084565b60006002610cf76109a0565b815481101515610d0357fe5b90600052602060002090600202016000015490509056fea165627a7a72305820e69820f3e585682dfdb0b97aeaf135303d25f7af5ba0b36066e1b2b670271f780029",
  "source": "pragma solidity >=0.4.22 <0.7.0;\n\n/// @title Voting with delegation.\ncontract Ballot {\n    // This declares a new complex type which will\n    // be used for variables later.\n    // It will represent a single voter.\n    struct Voter {\n        uint weight; // weight is accumulated by delegation\n        bool voted;  // if true, that person already voted\n        address delegate; // person delegated to\n        uint vote;   // index of the voted proposal\n    }\n\n    // This is a type for a single proposal.\n    struct Proposal {\n        bytes32 name;   // short name (up to 32 bytes)\n        uint voteCount; // number of accumulated votes\n    }\n\n    address public chairperson;\n\n    // This declares a state variable that\n    // stores a `Voter` struct for each possible address.\n    mapping(address => Voter) public voters;\n\n    // A dynamically-sized array of `Proposal` structs.\n    Proposal[] public proposals;\n\n    /// Create a new ballot to choose one of `proposalNames`.\n    constructor(bytes32[] memory proposalNames) public {\n        chairperson = msg.sender;\n        voters[chairperson].weight = 1;\n\n        // For each of the provided proposal names,\n        // create a new proposal object and add it\n        // to the end of the array.\n        for (uint i = 0; i < proposalNames.length; i++) {\n            // `Proposal({...})` creates a temporary\n            // Proposal object and `proposals.push(...)`\n            // appends it to the end of `proposals`.\n            proposals.push(Proposal({\n                name: proposalNames[i],\n                voteCount: 0\n            }));\n        }\n    }\n    function getChairperson() public view returns(address) {\n        return chairperson;\n    }\n    // Give `voter` the right to vote on this ballot.\n    // May only be called by `chairperson`.\n    function giveRightToVote(address voter) public {\n        // If the first argument of `require` evaluates\n        // to `false`, execution terminates and all\n        // changes to the state and to Ether balances\n        // are reverted.\n        // This used to consume all gas in old EVM versions, but\n        // not anymore.\n        // It is often a good idea to use `require` to check if\n        // functions are called correctly.\n        // As a second argument, you can also provide an\n        // explanation about what went wrong.\n        require(\n            msg.sender == chairperson,\n            \"Only chairperson can give right to vote.\"\n        );\n        require(\n            !voters[voter].voted,\n            \"The voter already voted.\"\n        );\n        require(voters[voter].weight == 0);\n        voters[voter].weight = 1;\n    }\n\n    /// Delegate your vote to the voter `to`.\n    function delegate(address to) public {\n        // assigns reference\n        Voter storage sender = voters[msg.sender];\n        require(!sender.voted, \"You already voted.\");\n\n        require(to != msg.sender, \"Self-delegation is disallowed.\");\n\n        // Forward the delegation as long as\n        // `to` also delegated.\n        // In general, such loops are very dangerous,\n        // because if they run too long, they might\n        // need more gas than is available in a block.\n        // In this case, the delegation will not be executed,\n        // but in other situations, such loops might\n        // cause a contract to get \"stuck\" completely.\n        while (voters[to].delegate != address(0)) {\n            to = voters[to].delegate;\n\n            // We found a loop in the delegation, not allowed.\n            require(to != msg.sender, \"Found loop in delegation.\");\n        }\n\n        // Since `sender` is a reference, this\n        // modifies `voters[msg.sender].voted`\n        sender.voted = true;\n        sender.delegate = to;\n        Voter storage delegate_ = voters[to];\n        if (delegate_.voted) {\n            // If the delegate already voted,\n            // directly add to the number of votes\n            proposals[delegate_.vote].voteCount += sender.weight;\n        } else {\n            // If the delegate did not vote yet,\n            // add to her weight.\n            delegate_.weight += sender.weight;\n        }\n    }\n\n    /// Give your vote (including votes delegated to you)\n    /// to proposal `proposals[proposal].name`.\n    function vote(uint proposal) public {\n        Voter storage sender = voters[msg.sender];\n        require(sender.weight != 0, \"Has no right to vote\");\n        require(!sender.voted, \"Already voted.\");\n        sender.voted = true;\n        sender.vote = proposal;\n\n        // If `proposal` is out of the range of the array,\n        // this will throw automatically and revert all\n        // changes.\n        proposals[proposal].voteCount += sender.weight;\n    }\n\n    /// @dev Computes the winning proposal taking all\n    /// previous votes into account.\n    function winningProposal() public view\n            returns (uint winningProposal_)\n    {\n        uint winningVoteCount = 0;\n        for (uint p = 0; p < proposals.length; p++) {\n            if (proposals[p].voteCount > winningVoteCount) {\n                winningVoteCount = proposals[p].voteCount;\n                winningProposal_ = p;\n            }\n        }\n    }\n\n    // Calls winningProposal() function to get the index\n    // of the winner contained in the proposals array and then\n    // returns the name of the winner\n    function winnerName() public view\n            returns (bytes32 winnerName_)\n    {\n        winnerName_ = proposals[winningProposal()].name;\n    }\n}",
  "sourcePath": "/home/xchazema/Desktop/reactApp/mern-vote/server/contracts/Ballot.sol",
  "compiler": {
    "name": "solc",
    "version": "0.5.0+commit.1d4f565a.Emscripten.clang"
  },
  "schemaVersion": "3.0.2",
  "updatedAt": "2019-03-26T17:35:44.804Z",
  "devdoc": {
    "methods": {
      "winningProposal()": {
        "details": "Computes the winning proposal taking all previous votes into account."
      }
    },
    "title": "Voting with delegation."
  },
  "userdoc": {
    "methods": {
      "constructor": "Create a new ballot to choose one of `proposalNames`.",
      "delegate(address)": {
        "notice": "Delegate your vote to the voter `to`."
      },
      "vote(uint256)": {
        "notice": "Give your vote (including votes delegated to you) to proposal `proposals[proposal].name`."
      }
    }
  }
}